{
  "_format": "hh-sol-artifact-1",
  "contractName": "Bridge",
  "sourceName": "contracts/Bridge.sol",
  "abi": [
    {
      "inputs": [],
      "stateMutability": "nonpayable",
      "type": "constructor"
    },
    {
      "inputs": [],
      "name": "InvalidAmount",
      "type": "error"
    },
    {
      "inputs": [],
      "name": "NonceAlreadyProcessed",
      "type": "error"
    },
    {
      "inputs": [
        {
          "internalType": "address",
          "name": "owner",
          "type": "address"
        }
      ],
      "name": "OwnableInvalidOwner",
      "type": "error"
    },
    {
      "inputs": [
        {
          "internalType": "address",
          "name": "account",
          "type": "address"
        }
      ],
      "name": "OwnableUnauthorizedAccount",
      "type": "error"
    },
    {
      "inputs": [],
      "name": "ReentrancyGuardReentrantCall",
      "type": "error"
    },
    {
      "inputs": [
        {
          "internalType": "address",
          "name": "token",
          "type": "address"
        }
      ],
      "name": "SafeERC20FailedOperation",
      "type": "error"
    },
    {
      "inputs": [],
      "name": "TokenNotSupported",
      "type": "error"
    },
    {
      "anonymous": false,
      "inputs": [
        {
          "indexed": true,
          "internalType": "address",
          "name": "sender",
          "type": "address"
        },
        {
          "indexed": true,
          "internalType": "address",
          "name": "token",
          "type": "address"
        },
        {
          "indexed": false,
          "internalType": "uint256",
          "name": "amount",
          "type": "uint256"
        },
        {
          "indexed": false,
          "internalType": "uint256",
          "name": "targetChainId",
          "type": "uint256"
        },
        {
          "indexed": false,
          "internalType": "uint256",
          "name": "nonce",
          "type": "uint256"
        }
      ],
      "name": "Deposit",
      "type": "event"
    },
    {
      "anonymous": false,
      "inputs": [
        {
          "indexed": true,
          "internalType": "address",
          "name": "previousOwner",
          "type": "address"
        },
        {
          "indexed": true,
          "internalType": "address",
          "name": "newOwner",
          "type": "address"
        }
      ],
      "name": "OwnershipTransferred",
      "type": "event"
    },
    {
      "anonymous": false,
      "inputs": [
        {
          "indexed": true,
          "internalType": "address",
          "name": "recipient",
          "type": "address"
        },
        {
          "indexed": true,
          "internalType": "address",
          "name": "token",
          "type": "address"
        },
        {
          "indexed": false,
          "internalType": "uint256",
          "name": "amount",
          "type": "uint256"
        },
        {
          "indexed": false,
          "internalType": "uint256",
          "name": "sourceChainId",
          "type": "uint256"
        },
        {
          "indexed": false,
          "internalType": "uint256",
          "name": "nonce",
          "type": "uint256"
        }
      ],
      "name": "Release",
      "type": "event"
    },
    {
      "inputs": [
        {
          "internalType": "address",
          "name": "_token",
          "type": "address"
        },
        {
          "internalType": "uint256",
          "name": "_amount",
          "type": "uint256"
        },
        {
          "internalType": "uint256",
          "name": "_targetChainId",
          "type": "uint256"
        }
      ],
      "name": "deposit",
      "outputs": [],
      "stateMutability": "nonpayable",
      "type": "function"
    },
    {
      "inputs": [],
      "name": "nonce",
      "outputs": [
        {
          "internalType": "uint256",
          "name": "",
          "type": "uint256"
        }
      ],
      "stateMutability": "view",
      "type": "function"
    },
    {
      "inputs": [],
      "name": "owner",
      "outputs": [
        {
          "internalType": "address",
          "name": "",
          "type": "address"
        }
      ],
      "stateMutability": "view",
      "type": "function"
    },
    {
      "inputs": [
        {
          "internalType": "uint256",
          "name": "",
          "type": "uint256"
        },
        {
          "internalType": "uint256",
          "name": "",
          "type": "uint256"
        }
      ],
      "name": "processedNonces",
      "outputs": [
        {
          "internalType": "bool",
          "name": "",
          "type": "bool"
        }
      ],
      "stateMutability": "view",
      "type": "function"
    },
    {
      "inputs": [
        {
          "internalType": "address",
          "name": "_token",
          "type": "address"
        },
        {
          "internalType": "uint256",
          "name": "_amount",
          "type": "uint256"
        },
        {
          "internalType": "address",
          "name": "_recipient",
          "type": "address"
        },
        {
          "internalType": "uint256",
          "name": "_sourceChainId",
          "type": "uint256"
        },
        {
          "internalType": "uint256",
          "name": "_sourceNonce",
          "type": "uint256"
        }
      ],
      "name": "release",
      "outputs": [],
      "stateMutability": "nonpayable",
      "type": "function"
    },
    {
      "inputs": [],
      "name": "renounceOwnership",
      "outputs": [],
      "stateMutability": "nonpayable",
      "type": "function"
    },
    {
      "inputs": [
        {
          "internalType": "address",
          "name": "_token",
          "type": "address"
        },
        {
          "internalType": "bool",
          "name": "_status",
          "type": "bool"
        }
      ],
      "name": "setTokenSupport",
      "outputs": [],
      "stateMutability": "nonpayable",
      "type": "function"
    },
    {
      "inputs": [
        {
          "internalType": "address",
          "name": "",
          "type": "address"
        }
      ],
      "name": "supportedTokens",
      "outputs": [
        {
          "internalType": "bool",
          "name": "",
          "type": "bool"
        }
      ],
      "stateMutability": "view",
      "type": "function"
    },
    {
      "inputs": [
        {
          "internalType": "address",
          "name": "newOwner",
          "type": "address"
        }
      ],
      "name": "transferOwnership",
      "outputs": [],
      "stateMutability": "nonpayable",
      "type": "function"
    }
  ],
  "bytecode": "0x608060405234801561001057600080fd5b506001600055338061003c57604051631e4fbdf760e01b81526000600482015260240160405180910390fd5b6100458161004b565b5061009d565b600180546001600160a01b038381166001600160a01b0319831681179093556040519116919082907f8be0079c531659141344cd1fd0a4f28419497f9722a3daafe3b4186f6b6457e090600090a35050565b610713806100ac6000396000f3fe608060405234801561001057600080fd5b50600436106100935760003560e01c8063715018a611610066578063715018a61461010b5780638da5cb5b14610113578063affed0e01461012e578063d3838ba014610145578063f2fde38b1461017357600080fd5b806307baf439146100985780630c6a753f146100ad5780630efe6a8b146100c057806368c4ac26146100d3575b600080fd5b6100ab6100a63660046105b5565b610186565b005b6100ab6100bb366004610603565b61026b565b6100ab6100ce36600461063f565b61029e565b6100f66100e1366004610672565b60036020526000908152604090205460ff1681565b60405190151581526020015b60405180910390f35b6100ab61038a565b6001546040516001600160a01b039091168152602001610102565b61013760025481565b604051908152602001610102565b6100f6610153366004610694565b600460209081526000928352604080842090915290825290205460ff1681565b6100ab610181366004610672565b61039e565b61018e6103e1565b61019661040e565b600082815260046020908152604080832084845290915290205460ff16156101d15760405163752eea4f60e01b815260040160405180910390fd5b60008281526004602090815260408083208484529091529020805460ff191660011790556102096001600160a01b0386168486610438565b60408051858152602081018490529081018290526001600160a01b0380871691908516907f93fede667057c1bd18fa0a628a650c1fc54bd3bd215fbdecbfca4b85a57c0f639060600160405180910390a36102646001600055565b5050505050565b6102736103e1565b6001600160a01b03919091166000908152600360205260409020805460ff1916911515919091179055565b6102a661040e565b6001600160a01b03831660009081526003602052604090205460ff166102df57604051633dd1b30560e01b815260040160405180910390fd5b816000036103005760405163162908e360e11b815260040160405180910390fd5b60028054906000610310836106b6565b9091555061032b90506001600160a01b038416333085610497565b600254604080518481526020810184905280820192909252516001600160a01b0385169133917f4e2ca0515ed1aef1395f66b5303bb5d6f1bf9d61a353fa53f73f8ac9973fa9f69181900360600190a36103856001600055565b505050565b6103926103e1565b61039c60006104d6565b565b6103a66103e1565b6001600160a01b0381166103d557604051631e4fbdf760e01b8152600060048201526024015b60405180910390fd5b6103de816104d6565b50565b6001546001600160a01b0316331461039c5760405163118cdaa760e01b81523360048201526024016103cc565b60026000540361043157604051633ee5aeb560e01b815260040160405180910390fd5b6002600055565b6040516001600160a01b0383811660248301526044820183905261038591859182169063a9059cbb906064015b604051602081830303815290604052915060e01b6020820180516001600160e01b038381831617835250505050610528565b6040516001600160a01b0384811660248301528381166044830152606482018390526104d09186918216906323b872dd90608401610465565b50505050565b600180546001600160a01b038381166001600160a01b0319831681179093556040519116919082907f8be0079c531659141344cd1fd0a4f28419497f9722a3daafe3b4186f6b6457e090600090a35050565b600080602060008451602086016000885af18061054b576040513d6000823e3d81fd5b50506000513d91508115610563578060011415610570565b6001600160a01b0384163b155b156104d057604051635274afe760e01b81526001600160a01b03851660048201526024016103cc565b80356001600160a01b03811681146105b057600080fd5b919050565b600080600080600060a086880312156105cd57600080fd5b6105d686610599565b9450602086013593506105eb60408701610599565b94979396509394606081013594506080013592915050565b6000806040838503121561061657600080fd5b61061f83610599565b91506020830135801515811461063457600080fd5b809150509250929050565b60008060006060848603121561065457600080fd5b61065d84610599565b95602085013595506040909401359392505050565b60006020828403121561068457600080fd5b61068d82610599565b9392505050565b600080604083850312156106a757600080fd5b50508035926020909101359150565b6000600182016106d657634e487b7160e01b600052601160045260246000fd5b506001019056fea2646970667358221220fc96ae85dca4d9a5899a36129bbda1c6d56fa964e53a8db331a50d6df3df551c64736f6c63430008140033",
  "linkReferences": {},
  "deployedLinkReferences": {}
}